{
  "_format": "hh-sol-artifact-1",
  "contractName": "ToDoList",
  "sourceName": "contracts/ToDoList.sol",
  "abi": [
    {
      "inputs": [],
      "stateMutability": "nonpayable",
      "type": "constructor"
    },
    {
      "anonymous": false,
      "inputs": [
        {
          "indexed": true,
          "internalType": "address",
          "name": "account",
          "type": "address"
        },
        {
          "indexed": true,
          "internalType": "uint256",
          "name": "userId",
          "type": "uint256"
        },
        {
          "indexed": false,
          "internalType": "string",
          "name": "message",
          "type": "string"
        },
        {
          "indexed": false,
          "internalType": "bool",
          "name": "completed",
          "type": "bool"
        }
      ],
      "name": "ToDoEvent",
      "type": "event"
    },
    {
      "inputs": [],
      "name": "_idUser",
      "outputs": [
        {
          "internalType": "uint256",
          "name": "",
          "type": "uint256"
        }
      ],
      "stateMutability": "view",
      "type": "function"
    },
    {
      "inputs": [
        {
          "internalType": "string",
          "name": "_message",
          "type": "string"
        }
      ],
      "name": "createList",
      "outputs": [],
      "stateMutability": "nonpayable",
      "type": "function"
    },
    {
      "inputs": [
        {
          "internalType": "uint256",
          "name": "",
          "type": "uint256"
        }
      ],
      "name": "creators",
      "outputs": [
        {
          "internalType": "address",
          "name": "",
          "type": "address"
        }
      ],
      "stateMutability": "view",
      "type": "function"
    },
    {
      "inputs": [],
      "name": "getAddress",
      "outputs": [
        {
          "internalType": "address[]",
          "name": "",
          "type": "address[]"
        }
      ],
      "stateMutability": "view",
      "type": "function"
    },
    {
      "inputs": [
        {
          "internalType": "address",
          "name": "_address",
          "type": "address"
        }
      ],
      "name": "getCreatorData",
      "outputs": [
        {
          "internalType": "address",
          "name": "",
          "type": "address"
        },
        {
          "internalType": "uint256",
          "name": "",
          "type": "uint256"
        },
        {
          "internalType": "string",
          "name": "",
          "type": "string"
        },
        {
          "internalType": "bool",
          "name": "",
          "type": "bool"
        }
      ],
      "stateMutability": "view",
      "type": "function"
    },
    {
      "inputs": [],
      "name": "getMessage",
      "outputs": [
        {
          "internalType": "string[]",
          "name": "",
          "type": "string[]"
        }
      ],
      "stateMutability": "view",
      "type": "function"
    },
    {
      "inputs": [
        {
          "internalType": "uint256",
          "name": "",
          "type": "uint256"
        }
      ],
      "name": "message",
      "outputs": [
        {
          "internalType": "string",
          "name": "",
          "type": "string"
        }
      ],
      "stateMutability": "view",
      "type": "function"
    },
    {
      "inputs": [
        {
          "internalType": "uint256",
          "name": "",
          "type": "uint256"
        }
      ],
      "name": "messageId",
      "outputs": [
        {
          "internalType": "uint256",
          "name": "",
          "type": "uint256"
        }
      ],
      "stateMutability": "view",
      "type": "function"
    },
    {
      "inputs": [],
      "name": "owner",
      "outputs": [
        {
          "internalType": "address",
          "name": "",
          "type": "address"
        }
      ],
      "stateMutability": "view",
      "type": "function"
    },
    {
      "inputs": [
        {
          "internalType": "address",
          "name": "",
          "type": "address"
        }
      ],
      "name": "toDoListApps",
      "outputs": [
        {
          "internalType": "address",
          "name": "account",
          "type": "address"
        },
        {
          "internalType": "uint256",
          "name": "userId",
          "type": "uint256"
        },
        {
          "internalType": "string",
          "name": "message",
          "type": "string"
        },
        {
          "internalType": "bool",
          "name": "completed",
          "type": "bool"
        }
      ],
      "stateMutability": "view",
      "type": "function"
    },
    {
      "inputs": [
        {
          "internalType": "address",
          "name": "_creator",
          "type": "address"
        }
      ],
      "name": "toggle",
      "outputs": [],
      "stateMutability": "nonpayable",
      "type": "function"
    }
  ],
  "bytecode": "0x608060405234801561001057600080fd5b5033600160006101000a81548173ffffffffffffffffffffffffffffffffffffffff021916908373ffffffffffffffffffffffffffffffffffffffff160217905550611125806100616000396000f3fe608060405234801561001057600080fd5b50600436106100a95760003560e01c80638da5cb5b116100715780638da5cb5b1461017e57806394432cc51461019c578063b8dcc68f146101ba578063cd53d08e146101d6578063ce6d41de14610206578063d1e8507b14610224576100a9565b80630d64e697146100ae57806321e47d46146100e157806338cc483114610111578063588f9acc1461012f57806374310d081461014b575b600080fd5b6100c860048036038101906100c39190610ae2565b610254565b6040516100d89493929190610beb565b60405180910390f35b6100fb60048036038101906100f69190610c63565b6103d9565b6040516101089190610c90565b60405180910390f35b6101196103fd565b6040516101269190610d69565b60405180910390f35b61014960048036038101906101449190610ae2565b61048b565b005b61016560048036038101906101609190610ae2565b610500565b6040516101759493929190610beb565b60405180910390f35b6101866105e5565b6040516101939190610d8b565b60405180910390f35b6101a461060b565b6040516101b19190610c90565b60405180910390f35b6101d460048036038101906101cf9190610e0b565b610611565b005b6101f060048036038101906101eb9190610c63565b6107fa565b6040516101fd9190610d8b565b60405180910390f35b61020e610839565b60405161021b9190610f64565b60405180910390f35b61023e60048036038101906102399190610c63565b610912565b60405161024b9190610f86565b60405180910390f35b6000806060600080600560008773ffffffffffffffffffffffffffffffffffffffff1673ffffffffffffffffffffffffffffffffffffffff1681526020019081526020016000206040518060800160405290816000820160009054906101000a900473ffffffffffffffffffffffffffffffffffffffff1673ffffffffffffffffffffffffffffffffffffffff1673ffffffffffffffffffffffffffffffffffffffff1681526020016001820154815260200160028201805461031690610fd7565b80601f016020809104026020016040519081016040528092919081815260200182805461034290610fd7565b801561038f5780601f106103645761010080835404028352916020019161038f565b820191906000526020600020905b81548152906001019060200180831161037257829003601f168201915b505050505081526020016003820160009054906101000a900460ff161515151581525050905080600001518160200151826040015183606001519450945094509450509193509193565b600481815481106103e957600080fd5b906000526020600020016000915090505481565b6060600280548060200260200160405190810160405280929190818152602001828054801561048157602002820191906000526020600020905b8160009054906101000a900473ffffffffffffffffffffffffffffffffffffffff1673ffffffffffffffffffffffffffffffffffffffff1681526020019060010190808311610437575b5050505050905090565b6000600560008373ffffffffffffffffffffffffffffffffffffffff1673ffffffffffffffffffffffffffffffffffffffff16815260200190815260200160002090508060030160009054906101000a900460ff16158160030160006101000a81548160ff0219169083151502179055505050565b60056020528060005260406000206000915090508060000160009054906101000a900473ffffffffffffffffffffffffffffffffffffffff169080600101549080600201805461054f90610fd7565b80601f016020809104026020016040519081016040528092919081815260200182805461057b90610fd7565b80156105c85780601f1061059d576101008083540402835291602001916105c8565b820191906000526020600020905b8154815290600101906020018083116105ab57829003601f168201915b5050505050908060030160009054906101000a900460ff16905084565b600160009054906101000a900473ffffffffffffffffffffffffffffffffffffffff1681565b60005481565b6106196109be565b6000805490506000600560003373ffffffffffffffffffffffffffffffffffffffff1673ffffffffffffffffffffffffffffffffffffffff1681526020019081526020016000209050338160000160006101000a81548173ffffffffffffffffffffffffffffffffffffffff021916908373ffffffffffffffffffffffffffffffffffffffff16021790555083838260020191906106b89291906109d7565b508181600101819055506002339080600181540180825580915050600190039060005260206000200160009091909190916101000a81548173ffffffffffffffffffffffffffffffffffffffff021916908373ffffffffffffffffffffffffffffffffffffffff16021790555060038484909180600181540180825580915050600190039060005260206000200160009091929091929091929091925091906107629291906109d7565b50600482908060018154018082558091505060019003906000526020600020016000909190919091505580600101543373ffffffffffffffffffffffffffffffffffffffff167f97cb199a6fede85e8843b14a3b82273a76130b0e671f8803ce27aa90d52ee11486868560030160009054906101000a900460ff166040516107ec93929190611045565b60405180910390a350505050565b6002818154811061080a57600080fd5b906000526020600020016000915054906101000a900473ffffffffffffffffffffffffffffffffffffffff1681565b60606003805480602002602001604051908101604052809291908181526020016000905b8282101561090957838290600052602060002001805461087c90610fd7565b80601f01602080910402602001604051908101604052809291908181526020018280546108a890610fd7565b80156108f55780601f106108ca576101008083540402835291602001916108f5565b820191906000526020600020905b8154815290600101906020018083116108d857829003601f168201915b50505050508152602001906001019061085d565b50505050905090565b6003818154811061092257600080fd5b90600052602060002001600091509050805461093d90610fd7565b80601f016020809104026020016040519081016040528092919081815260200182805461096990610fd7565b80156109b65780601f1061098b576101008083540402835291602001916109b6565b820191906000526020600020905b81548152906001019060200180831161099957829003601f168201915b505050505081565b6000808154809291906109d0906110a6565b9190505550565b8280546109e390610fd7565b90600052602060002090601f016020900481019282610a055760008555610a4c565b82601f10610a1e57803560ff1916838001178555610a4c565b82800160010185558215610a4c579182015b82811115610a4b578235825591602001919060010190610a30565b5b509050610a599190610a5d565b5090565b5b80821115610a76576000816000905550600101610a5e565b5090565b600080fd5b600080fd5b600073ffffffffffffffffffffffffffffffffffffffff82169050919050565b6000610aaf82610a84565b9050919050565b610abf81610aa4565b8114610aca57600080fd5b50565b600081359050610adc81610ab6565b92915050565b600060208284031215610af857610af7610a7a565b5b6000610b0684828501610acd565b91505092915050565b610b1881610aa4565b82525050565b6000819050919050565b610b3181610b1e565b82525050565b600081519050919050565b600082825260208201905092915050565b60005b83811015610b71578082015181840152602081019050610b56565b83811115610b80576000848401525b50505050565b6000601f19601f8301169050919050565b6000610ba282610b37565b610bac8185610b42565b9350610bbc818560208601610b53565b610bc581610b86565b840191505092915050565b60008115159050919050565b610be581610bd0565b82525050565b6000608082019050610c006000830187610b0f565b610c0d6020830186610b28565b8181036040830152610c1f8185610b97565b9050610c2e6060830184610bdc565b95945050505050565b610c4081610b1e565b8114610c4b57600080fd5b50565b600081359050610c5d81610c37565b92915050565b600060208284031215610c7957610c78610a7a565b5b6000610c8784828501610c4e565b91505092915050565b6000602082019050610ca56000830184610b28565b92915050565b600081519050919050565b600082825260208201905092915050565b6000819050602082019050919050565b610ce081610aa4565b82525050565b6000610cf28383610cd7565b60208301905092915050565b6000602082019050919050565b6000610d1682610cab565b610d208185610cb6565b9350610d2b83610cc7565b8060005b83811015610d5c578151610d438882610ce6565b9750610d4e83610cfe565b925050600181019050610d2f565b5085935050505092915050565b60006020820190508181036000830152610d838184610d0b565b905092915050565b6000602082019050610da06000830184610b0f565b92915050565b600080fd5b600080fd5b600080fd5b60008083601f840112610dcb57610dca610da6565b5b8235905067ffffffffffffffff811115610de857610de7610dab565b5b602083019150836001820283011115610e0457610e03610db0565b5b9250929050565b60008060208385031215610e2257610e21610a7a565b5b600083013567ffffffffffffffff811115610e4057610e3f610a7f565b5b610e4c85828601610db5565b92509250509250929050565b600081519050919050565b600082825260208201905092915050565b6000819050602082019050919050565b600082825260208201905092915050565b6000610ea082610b37565b610eaa8185610e84565b9350610eba818560208601610b53565b610ec381610b86565b840191505092915050565b6000610eda8383610e95565b905092915050565b6000602082019050919050565b6000610efa82610e58565b610f048185610e63565b935083602082028501610f1685610e74565b8060005b85811015610f525784840389528151610f338582610ece565b9450610f3e83610ee2565b925060208a01995050600181019050610f1a565b50829750879550505050505092915050565b60006020820190508181036000830152610f7e8184610eef565b905092915050565b60006020820190508181036000830152610fa08184610b97565b905092915050565b7f4e487b7100000000000000000000000000000000000000000000000000000000600052602260045260246000fd5b60006002820490506001821680610fef57607f821691505b6020821081141561100357611002610fa8565b5b50919050565b82818337600083830152505050565b60006110248385610b42565b9350611031838584611009565b61103a83610b86565b840190509392505050565b60006040820190508181036000830152611060818587611018565b905061106f6020830184610bdc565b949350505050565b7f4e487b7100000000000000000000000000000000000000000000000000000000600052601160045260246000fd5b60006110b182610b1e565b91507fffffffffffffffffffffffffffffffffffffffffffffffffffffffffffffffff8214156110e4576110e3611077565b5b60018201905091905056fea2646970667358221220c2a8e612b3cd8268b4394c03418f99377e23fc06cdbb47d98df67c899e277e4b64736f6c63430008090033",
  "linkReferences": {},
  "deployedLinkReferences": {}
}